:020000040800F2
:1000000080080020A101000857120008890F00088D
:1000100055120008AD02000891130008000000000E
:10002000000000000000000000000000EB120008CB
:10003000AF0200080000000059120008ED1200088D
:10004000BB010008BB010008BB010008BB010008A0
:10005000BB010008BB010008BB010008BB01000890
:10006000BB010008BB010008BB010008BB01000880
:10007000BB010008BB010008BB010008BB01000870
:10008000BB010008BB010008BB010008BB01000860
:10009000BB010008BB010008BB010008BB01000850
:1000A000BB010008BB010008BB010008BB01000840
:1000B000BB010008BB010008BB010008BB01000830
:1000C000BB010008BB010008BB010008BB01000820
:1000D000BB010008BB010008BB010008BB01000810
:1000E000BB010008BB010008BB010008BB01000800
:1000F000BB010008BB010008BB010008BB010008F0
:10010000BB010008BB010008BB010008BB010008DF
:10011000BB010008BB010008BB010008BB010008CF
:10012000BB010008BB010008BB010008BB010008BF
:10013000BB010008BB010008BB010008BB010008AF
:10014000BB010008BB010008BB010008BB0100089F
:10015000BB010008BB010008BB010008BB0100088F
:10016000BB010008BB010008BB010008BB0100087F
:10017000BB010008BB010008BB0100080000000033
:100180007D0F0008BB010008DFF810D000F07CF8FC
:10019000004800476D140008AFF30080800800207D
:1001A0000648804706480047FEE7FEE7FEE7FEE711
:1001B000FEE7FEE7FEE7FEE7FEE7FEE77513000851
:1001C000890100082DE9F05F0546002092469B4614
:1001D00088460646814640241BE02846414647465D
:1001E000224600F041F853465A46C01A914110D3B6
:1001F00011461846224600F028F82D1A67EB010830
:100200004F4622460120002100F01FF817EB00099D
:100210004E41201EA4F10104DFDC484631462A4647
:100220004346BDE8F09FD2B201E000F8012B491E21
:10023000FBD270470022F6E710B513460A46044683
:100240001946FFF7F0FF204610BD202A04DB203AB4
:1002500000FA02F1002070479140C2F1200320FA19
:1002600003F3194390407047202A04DB203A21FA17
:1002700002F00021704721FA02F3D040C2F12002BF
:100280009140084319467047064C074D06E0E06868
:1002900040F0010394E8070098471034AC42F6D3CD
:1002A000FFF776FFB42E0008D42E0008FEE7704753
:1002B00070B5044600F0F0F80546601C02D0044812
:1002C0000078044400F0E8F8401BA042FAD370BD67
:1002D0000C0000202DE9F84F00224FF00108032503
:1002E0004FF00F0E0B6808FA02F42340A3426ED1C0
:1002F0004E68012E05D0022E03D0112E01D0122EF1
:1003000012D186684FEA420C05FA0CF7BE43CF685B
:1003100007FA0CF7374387604668A6430C79C4F3A5
:100320000014944034434460C668570005FA07FC43
:100330008C6826EA0C06BC403443C4604C68022C2E
:1003400001D0122C13D1D40800EB8404A346D4F8B6
:10035000209054074FEAD46A0EFA0AF629EA0609F1
:100360000E6906FA0AF646EA0906CBF82060066826
:100370000C7926EA0C0604F00304BC403443046004
:100380004C68E40065D5364C266846F48046266005
:10039000246822F0030604F480440094314C344471
:1003A000A446D4F808489607370F0EFA07F6B44368
:1003B0002D4EB04201D1002624E02C4EB04201D196
:1003C00001261FE02A4EB04202D102261AE040E088
:1003D000284EB04201D1032614E0274EB04201D18D
:1003E00004260FE0254EB04201D105260AE0244E36
:1003F000B04201D1062605E0224EB04201D10726C7
:1004000000E00826BE402643CCF808681E4E34683B
:100410004F689C43FF0300D51C4334601A4C241DD5
:1004200026684F689E43BF0300D51E432660164EC4
:10043000083634684F689C43FF0200D51C43346083
:10044000114E0C3634684F689C43BF0200D51C43E4
:100450003460521C102AFFF445AFBDE8F88F00004D
:1004600044380240003001400000024000040240D5
:1004700000080240000C024000100240001402403C
:1004800000180240001C0240003C01400069084086
:1004900000D00120704700000148806870470000CC
:1004A0000C00002070B5040025D094F83D00002514
:1004B00020B984F83C50204600F050F9242084F8FC
:1004C0003D002068016821F0010101602068016899
:1004D00041F4004101602068016821F4004101609D
:1004E00000F0A6FA4D4A6168914201D84C4900E0FB
:1004F0004C49884201D2012070BD4B492368B0FBB2
:10050000F1F15E6826F03F060E435E606368934239
:1005100006D94FF4967359434FF47A73B1FBF3F154
:100520002368491C1E6A26F03F0631431962616840
:10053000914210D84900401EB0FBF1F2521CC2F3A8
:100540000B02042A01D2042022E0B0FBF1F0401C8F
:10055000C0F30B001CE0A268F2B301EBC10303EB94
:100560000116431EB3FBF6F35B1C43F480431B05EB
:1005700049D092B301EBC10202EB0111401EB0FB66
:10058000F1F0401CC0F30B0040F4804040F4004008
:100590002168CA694CF6FF739A431043C861D4E9D5
:1005A000071001432068026822F0C0021143016075
:1005B000D4E9030101432068826848F2FF339A437B
:1005C00011438160D4E9050108432168CA6822F01B
:1005D000FF021043C86001E00EE016E020680168E9
:1005E00041F0010101602564202084F83D0025636D
:1005F00084F83E50002070BD01EB4106431EB3FB62
:10060000F6F35B1CB3E70120C2E701EB4101401E9A
:10061000B0FBF1F0401CC0F30B00B7E7A08601006F
:1006200080841E0000093D0040420F002DE9FF4F6D
:1006300083B09A46DDE9119793460446DDF8408081
:10064000FFF72AFF054694F83D0020287FD11923A3
:10065000012240492046009500F028FD002876D16F
:1006600094F83C00012872D0012084F83C002068F6
:100670000168C90703D1016841F0010101602068E8
:10068000016821F400610160212084F83D004020D0
:1006900084F83E0000262664C4F82480A4F82A903A
:1006A000608D20852C48E062CDE9007553465A469E
:1006B0002046049900F080FC70B930E02A463946A3
:1006C000204600F072FD58B1206C042804D1206847
:1006D000016841F400710160012007B0BDE8F08FAE
:1006E000606A216800780861606A401C6062218D40
:1006F000491E89B22185628D521E62852268536926
:10070000DB435B070BD469B100781061606A401C61
:100710006062208D401E2085608D401E6085208D8A
:100720000028CBD12A463946204600F099FC002803
:10073000CAD154F83D0B016841F4007101602020DA
:1007400004F81E09E67766770020C6E7FFE7022077
:10075000C3E70000020010000000FFFF10B586B0E4
:10076000044614216846FFF765FD13492068884256
:1007700020D11248016841F0020101600068694619
:1007800000F002000590C02000901220019001208E
:10079000029003200390042004900948FFF79AFD7B
:1007A00006481030016841F400110160006800F44F
:1007B0000010059006B010BD0054004030380240D3
:1007C0000004024002488168027811448160704749
:1007D0000C0000200B4810B5016841F40071016065
:1007E000016841F480610160016841F48071016039
:1007F000032000F071F8002000F006F800F024F863
:10080000002010BD003C024070B50D4D04464FF471
:100810007A712878B1FBF0F00A490968B1FBF0F071
:1008200000F097FB48B9102C07D200222146501E39
:1008300000F032F800206C6070BD012070BD000037
:100840000C000020180000200B4882B0016841F421
:1008500080410160006800F4804000900648001F5D
:10086000016841F080510160006800F08050009004
:10087000072002B000F030B844380240002809DBFD
:1008800000F01F02012191404009800000F1E020AA
:10089000C0F8001170470000F0B40E4B1B680C4606
:1008A000C3F30223C3F10705042D00D90425191D44
:1008B000072901D2002300E0DB1E012606FA05F11C
:1008C000491E214099409E40761E16403143F0BC9F
:1008D00000F05FBD0CED00E0064900F0070208687B
:1008E0004FF6FF03184040EA0220034A1043086015
:1008F000704700000CED00E00000FA052DE9F0471C
:100900000E46050065D0DFF81481D8F80000F7B274
:1009100000F00F00B04207D288F80070D8F800004D
:1009200000F00F00B04254D128683D4C810712D529
:10093000400703D5206840F4E05020602878000785
:1009400003D5206840F4604020602068A96820F04A
:10095000F000084320602878C0072DD0304968682F
:100960000839012812D0022813D0032811D00968B1
:10097000890700292DDA216821F003010143216054
:10098000FFF78AFD814641F2883A0EE00968890343
:10099000EFE709688901ECE7FFF77EFDA0EB0901AD
:1009A000514502D90320BDE8F0872068696800F04E
:1009B0000C00B0EB810FEFD1D8F80010404601F0E9
:1009C0000F01B14207D90770006800F00F00B04274
:1009D00001D00120E7E72878400705D52068E968BD
:1009E00020F4E050084320602878000706D52068EE
:1009F000296920F4604040EAC100206000F028F836
:100A00002168084AC1F30311515CC84006490860D7
:100A100006480068FFF7F8FE0020C4E7003C0240EB
:100A2000083802409C2E000818000020100000200A
:100A30000448054900680968044AC1F38221515CF1
:100A4000C84070471800002008380240AC2E00084B
:100A5000154810B5006810F00C02144813D041106E
:100A6000042A0FD0082A0ED10F4C241F22682368B5
:100A700002F03F025B0207D52068C0F38810A0FB9C
:100A8000010106E0084610BD2168C1F38811A1FBF1
:100A900000010023FFF796FB2168C1F30141491CC7
:100AA0004900B0FBF1F010BD083802400024F4000A
:100AB0002DE9F84F040076D02078DFF838A3CE4D2A
:100AC000C00749D0DAF800105046C1F3810101296E
:100AD00008D00068C0F3810002280AD1281D0068F0
:100AE000400206D52868800336D560680028E2D029
:100AF00032E06068B0F5803F10D0B0F5A02F2868D4
:100B000010D020F480302860286820F480202860ED
:100B10006068A0B1FFF7C0FC06460CE0286840F40E
:100B20008030F4E740F480202860F7E7FFF7B4FC5A
:100B3000801B642873D828688003F7D50CE0FFF782
:100B4000ABFC064605E000BFFFF7A6FC801B64284F
:100B5000F0D828688003F7D42078DFF8A0828007D7
:100B60004FF000093ED5DAF80010504611F00C0F96
:100B700009D00068C0F3810002280BD19D48001FF6
:100B80000068400206D42868800715D5E06801286F
:100B900009D111E0E068B8B10120C8F80000FFF702
:100BA0007BFC064605E020E1FFF776FC801B02286F
:100BB000C0D828688007F7D52868216920F0F80098
:100BC00040EAC10028600DE0C8F80090FFF764FC1F
:100BD000064604E0FFF760FC801B02281FD8286847
:100BE0008007F7D42078000722D5824E84486169B7
:100BF0006C3671B101210160FFF74EFC074604E03D
:100C0000FFF74AFCC01B022809D830688007F7D5D7
:100C10000EE0C0F80090FFF73FFC074605E082E0D9
:100C2000FFF73AFCC01B02287DD830688007F7D454
:100C30002078400768D5DFF8BCB100270BF1380BEE
:100C4000DBF80000C0000BD4DBF8001041F080514D
:100C5000CBF80010DBF80000012700F08050009076
:100C6000684E3068C00510D4306840F48070306041
:100C7000FFF712FC009005E0FFF70EFC0099401A08
:100C8000022850D83068C005F6D55A4EA06868369C
:100C900001280FD00528306810D020F00100306006
:100CA000306820F004003060A068B8B1FFF7F4FBB2
:100CB00000900FE0306840F00100F4E740F00400DD
:100CC0003060F7E7FFF7E8FB0099411A41F28830FE
:100CD000814266D830688007F4D50EE0FFF7DCFB70
:100CE000009007E0FFF7D8FB0099411A41F28830E5
:100CF000814256D830688007F4D42FB1DBF8001059
:100D000021F08051CBF80010A069D0B3DAF80020B0
:100D10005146C2F38102022A4AD00228484607D02F
:100D2000C8F8600000E03CE0FFF7B6FB04463BE09B
:100D30004746C8F86000FFF7AFFB064605E000BF76
:100D4000FFF7AAFB801B02282BD828688001F7D464
:100D5000D4E907010843A16A2B4A490802EB014183
:100D6000626A41EA8211084394F82C1040EA01615A
:100D70002048001F016001203866FFF78DFB044604
:100D800005E034E0FFF788FB001B022809D828683B
:100D90008001F7D52BE000BFFFF77EFB001B022888
:100DA00002D90320BDE8F88F28688001F4D41EE042
:100DB0000128F7D00868E26900F48001914214D15B
:100DC000226A00F03F0191420FD147F6C071626A7A
:100DD0000140914209D1A26A00F44031914204D10C
:100DE000E16A00F07060884201D00120DAE700205B
:100DF000D8E70000083802400038024000004742AF
:100E0000800E4742007000400000FFFF7047000066
:100E10002DE9F0470446007900278A4601280ED0C4
:100E20000125257160794FF00009012809D00420BF
:100E3000A060012784F804903846BDE8F0870220BE
:100E4000FBE74FF0020884F80580FFF725FB064614
:100E50000CE000BFFFF720FB801B022806D965715C
:100E6000C4F8088084F804900120E6E72068406810
:100E7000C043C007EED120688068E060CAF8000077
:100E80006571D7E710B5044600684168C943890613
:100E900001D4102004E04068C04340060AD4082072
:100EA000A060042060712046FFF7B0FF21686FF05A
:100EB0006000486020684168C943C90710D10168D3
:100EC00021F00801016020688168E16060790428F0
:100ED00006D00120607100202071204600F038F813
:100EE00010BD70B5040003D06079002510B105E095
:100EF000012070BD2571204600F00CF802206071C1
:100F00002068016841F00401016001206071A56062
:100F1000002070BD08B500680B49884212D10B480B
:100F2000016841F0400101600068002200F04000CB
:100F3000009011465020FFF7AFFCBDE8084050205C
:100F4000FFF79CBC08BD0000000806503438024082
:100F5000704710B5401EB0F1807F01D3012010BD55
:100F60004FF0E02460610F21601700F012FA0020BA
:100F7000A06107202061002010BD00000148FFF79C
:100F800081BF000070040020FEE701684A69D24377
:100F900052050FD46FF480624A61002140F8301F7F
:100FA000202242738173026942F0040202610173DC
:100FB00001207047002070472DE9F843044600687F
:100FC0000D46DDE9089701689846164641F48071A0
:100FD00001604B4600224FF001112046009700F0BF
:100FE00065F848B120680068C00502D54FF400706C
:100FF00020640320BDE8F883216805F0FE00086145
:101000003B464A461549204600F084F888B92068D6
:101010004169806900903A464946204600F0C5F88B
:1010200048B1206C042804D12068016841F40071A3
:1010300001600120DEE7F5B2B8F1010F09D02168A7
:10104000300A08613A464946204600F0AEF80028CA
:10105000E7D1206805610020CCE700000200010014
:1010600070B516460D4604460DE02046FFF78DFF8D
:1010700008B1012070BD681C05D0FFF70DFA801B78
:10108000A84207D835B120684069C0434007ECD476
:10109000002070BD002044F8300F20216173A07340
:1010A000216941F0200121612073E2E72DE9F04739
:1010B0001E4690460D460446C1F30747DDF82090D2
:1010C00008E0701C06D0FFF7E7F9A0EB0900B0427A
:1010D0000FD876B12068012F18D0806925EA00006A
:1010E0000004000C14D000214145EAD00020BDE8E6
:1010F000F087002044F8300F20216173A07321692C
:1011000041F02001216120730120F0E74069E5E70B
:101110000121E9E72DE9F0479A4691460E4604463B
:1011200000254FF02008C1F3074725E020684069FB
:10113000C043400514D42068016841F40071016087
:1011400021686FF480604861256384F83D8084F8ED
:101150003E50206C40F00400206484F83C501FE0B6
:10116000B9F1FF3F08D0FFF797F9A0EB0A01494515
:101170000CD8B9F1000F09D02068012F13D0806975
:1011800026EA00000004000C0BD0CFE744F8305FE3
:1011900084F80D80A573206940F02000206125733C
:1011A0000120BDE8F0874069EAE770B516460D46B4
:1011B00004460DE02046FFF7E8FE08B1012070BDAF
:1011C000681C05D0FFF768F9801BA84207D835B125
:1011D00020684069C0430006ECD4002070BD0020A8
:1011E00044F8300F20216173A073216941F0200180
:1011F00021612073E2E7000000B587B01421684642
:10120000FFF718F811480021026842F080020260DE
:10121000026802F080020592026842F00102026058
:10122000026802F001020592026842F002020260C6
:101230000068029100F0020005900120CDE9000154
:1012400069460348FFF746F807B000BD3038024052
:1012500000000240FEE77047704730B500250024CB
:10126000E1B2E8B2002200F049F9641C402CF7DB3F
:101270006D1C802DF3DB30BD2DE9FF4F8346894681
:10128000D81DC11700EB517000271D464FEAE00A38
:101290003E46DDF8348024E000241AE0600702D0E6
:1012A0007806070E08E0E01704EB5071029800EB97
:1012B000E10116FB0A100778380608D50E9809F0E8
:1012C000FF01C2B20BEB0400C0B200F017F9641CBE
:1012D00024B2AC42E2DB761C09F1010036B20FFA0F
:1012E00080F94645D8DBBDE8FF8F7047FFF76ABA43
:1012F00030B593B030216846FEF79CFF14210CA84E
:10130000FEF798FF19480025016841F080510160FF
:10131000006800F0805011901548016841F4804148
:1013200001600068022400F48040119001200390C5
:1013300010200490009406940820CDE90750A820BE
:10134000CDE9090407200B906846FFF7B1FB0CA913
:101350000F2081E831004FF4A0500F90E002109070
:1013600005210CA8FFF7CAFA13B030BD403802407F
:10137000007000400548016841F4700101600349B4
:101380004FF00060803908607047000088ED00E091
:10139000FEE70907090E002804DB00F1E02080F8D1
:1013A0000014704700F00F0000F1E02080F8141DD9
:1013B000704702E008C8121F08C1002AFAD170471E
:1013C0007047002001E001C1121F002AFBD17047C5
:1013D0007CB50124402507282CD2DFE800F02B043F
:1013E000090E13181D00FFF738FF8023124A17E07B
:1013F000FFF733FF8023114A12E0FFF72EFF80230F
:101400000F4A0DE0FFF729FF80230E4A08E0FFF79F
:1014100024FF80230C4A03E0FFF71FFF0B4A8023C1
:10142000CDE9005400210846FFF726FFBDE87C40C7
:1014300000F0FCB87CBD00009C1600089C1A000857
:101440009C1E00089C2200089C2600089C2A00087C
:1014500070B50124451C06E02046FFF7B9FFC820FF
:10146000FEF726FF641CAC42F6DB70BDFFF7B2F955
:10147000FFF73EFFFFF7C0FE1B481A494FF48042BA
:1014800001601A49416000218160C0E90312416195
:101490008161C1610162FFF705F8134914485431B5
:1014A00008600846FFF71DFD00F058F8114E124C79
:1014B000062501213046FEF7E9FF0128F9D10A4847
:1014C0000D495430FFF7A4FC2068B0FBF5F105FB93
:1014D0001100401C20600620FFF7BAFF2068FFF7CC
:1014E000B7FFE6E7005400401C040020801A060005
:1014F00000080650000002400800002070B5802857
:1015000013D2402911D20B4B012401F007051E799B
:10151000AC40094BC90800EBC1100EB132B101E07B
:10152000012A03D0195CA143195470BD195C2143F1
:10153000FAE70000000000201C00002010B5064A59
:1015400000214FF4806328B1FF245454491C994270
:10155000F9D310BD0024F8E71C00002010B564206A
:10156000FEF7A6FEAE2000F087F8202000F084F8F9
:10157000102000F081F8B02000F07EF8C82000F0C4
:101580007BF8002000F078F8102000F075F840207B
:1015900000F072F8812000F06FF8FF2000F06CF886
:1015A000A12000F069F8A62000F066F8A82000F05D
:1015B00063F83F2000F060F8A42000F05DF8D3202D
:1015C00000F05AF8002000F057F8D52000F054F849
:1015D000F02000F051F8D92000F04EF8222000F061
:1015E0004BF8DA2000F048F8122000F045F8DB2034
:1015F00000F042F8202000F03FF88D2000F03CF889
:10160000142000F039F8AF2000F036F80020FFF782
:1016100095FF00F00BF80448002101804180012172
:101620004171084610BD000000000020FEB50024F6
:1016300064250F4F802600BF04F1B000C0B200F057
:101640001BF8002000F018F8102000F015F807EB48
:10165000C410CDE9000601234022782102950548F7
:10166000FEF7E4FF641CE4B2082CE5D3FEBD0000E5
:101670001C0000201C04002001B584B001210A22B6
:1016800004A88DE807000B46002278210248FEF7E7
:10169000CDFF05B000BD00001C040020FFFFFFFFD0
:1016A0000000000000000000FFFFFFFFFFFFFFFF42
:1016B0000000000000000000FFFFFFFFFFFFFFFF32
:1016C0000000000000000000FFFFFFFFFFFFFFFF22
:1016D0000000000000000000FFFFFFFFFFFFFFFF12
:1016E0000000000000000000FFFFFFFFFFFFFFFF02
:1016F00003FFFFFFFFFFFFC0FFFFFFFFFFFFFFFF35
:1017000007FFFFFFFFFFFFE0FFFFFFFFFFFFFFFF00
:1017100007FFFFFFFFFFFFE0FFFFFFFFFFFFFFFFF0
:1017200007FFFFFFFFFFFFE0FFFFFFFFFFFFFFFFE0
:1017300007FFFFFFFFFFFFE0FFFFFFFFFFFFFFFFD0
:1017400007FFFFFFFFFFFFE0FFFFFFFFFFFFFFFFC0
:1017500007FFFFFFFFFFFFE0FFFFFFFFFFFFFFFFB0
:1017600007FFFFFFFFFFFFE0FFFFFFFFFFFFFFFFA0
:1017700007FFFFFFFFFFFFE0FFFFFFFFFFFFFFFF90
:1017800007FFFFFFFFFFFFE0FFFFFFFFFFFFFFFF80
:1017900007FFFFFFFFFFFFE0FFFFFFFFFFFFFFFF70
:1017A00007FFFFFFFFFFFFE0FFFFFFFFFFFFFFFF60
:1017B00007FFFFFFFFFFFFE0FFFFFFFFFFFFFFFF50
:1017C00007FFFFFFFFFFFFE0FFFFFFFFFFFFFFFF40
:1017D00007FFFFFFFFFFFFE0FFFFFFFFFFFFFFFF30
:1017E00007FFFFFFFFFFFFE0FFFFFFFFFFFFFFFF20
:1017F00007FFFFFFFFFFFFE0FFFFFFFFFFFFFFFF10
:1018000007FFFFFFFFFFFFE0FFFFFFFFFFFFFFFFFF
:1018100007FFFFFFFFFFFFE0FFFFFFFFFFFFFFFFEF
:1018200007FFFFFFFFFFFFE0FFFFFFFFFFFFFFFFDF
:1018300007FFFFFFFFFFFFE0FFFFFFFFFFFFFFFFCF
:1018400007FFFFF81FFFFFE0FFFFFFFFFFFFFFFFA6
:1018500007FFFFF00FFFFFE0FFFFFFFFFFFFFFFFAE
:1018600007FFFFE007FFFFE0FFFFFFFFFFFFFFFFB6
:1018700007FFFFC003FFFFE0FFFFFFFFFFFFFFFFCA
:1018800007FFFFC003FFFFE0FFFFFFFFFFFFFFFFBA
:1018900007FFFFC003FFFFE0FFFFFFFFFFFFFFFFAA
:1018A00007FFFFC003FFFFE0FFFFFFFFFFFFFFFF9A
:1018B00007FFFFC003FFFFE0FFFFFFFFFFFFFFFF8A
:1018C00007FFFFC003FFFFE0FFFFFFFFFFFFFFFF7A
:1018D00007FFFFE007FFFFE0FFFFFFFFFFFFFFFF46
:1018E00007FFFFF00FFFFFE0FFFFFFFFFFFFFFFF1E
:1018F00007FFFFF81FFFFFE0FFFFFFFFFFFFFFFFF6
:1019000007FFFFFFFFFFFFE0FFFFFFFFFFFFFFFFFE
:1019100007FFFFFFFFFFFFE0FFFFFFFFFFFFFFFFEE
:1019200007FFFFFFFFFFFFE0FFFFFFFFFFFFFFFFDE
:1019300007FFFFFFFFFFFFE0FFFFFFFFFFFFFFFFCE
:1019400007FFFFFFFFFFFFE0FFFFFFFFFFFFFFFFBE
:1019500007FFFFFFFFFFFFE0FFFFFFFFFFFFFFFFAE
:1019600007FFFFFFFFFFFFE0FFFFFFFFFFFFFFFF9E
:1019700007FFFFFFFFFFFFE0FFFFFFFFFFFFFFFF8E
:1019800007FFFFFFFFFFFFE0FFFFFFFFFFFFFFFF7E
:1019900007FFFFFFFFFFFFE0FFFFFFFFFFFFFFFF6E
:1019A00007FFFFFFFFFFFFE0FFFFFFFFFFFFFFFF5E
:1019B00007FFFFFFFFFFFFE0FFFFFFFFFFFFFFFF4E
:1019C00007FFFFFFFFFFFFE0FFFFFFFFFFFFFFFF3E
:1019D00007FFFFFFFFFFFFE0FFFFFFFFFFFFFFFF2E
:1019E00007FFFFFFFFFFFFE0FFFFFFFFFFFFFFFF1E
:1019F00007FFFFFFFFFFFFE0FFFFFFFFFFFFFFFF0E
:101A000007FFFFFFFFFFFFE0FFFFFFFFFFFFFFFFFD
:101A100007FFFFFFFFFFFFE0FFFFFFFFFFFFFFFFED
:101A200007FFFFFFFFFFFFE0FFFFFFFFFFFFFFFFDD
:101A300007FFFFFFFFFFFFE0FFFFFFFFFFFFFFFFCD
:101A400003FFFFFFFFFFFFC0FFFFFFFFFFFFFFFFE1
:101A50000000000000000000FFFFFFFFFFFFFFFF8E
:101A60000000000000000000FFFFFFFFFFFFFFFF7E
:101A70000000000000000000FFFFFFFFFFFFFFFF6E
:101A80000000000000000000FFFFFFFFFFFFFFFF5E
:101A90000000000000000000FFFFFFFFFFFFFFFF4E
:101AA0000000000000000000FFFFFFFFFFFFFFFF3E
:101AB0000000000000000000FFFFFFFFFFFFFFFF2E
:101AC0000000000000000000FFFFFFFFFFFFFFFF1E
:101AD0000000000000000000FFFFFFFFFFFFFFFF0E
:101AE0000000000000000000FFFFFFFFFFFFFFFFFE
:101AF00003FFFFFFFFFFFFC0FFFFFFFFFFFFFFFF31
:101B000007FFFFFFFFFFFFE0FFFFFFFFFFFFFFFFFC
:101B100007FFFFFFFFFFFFE0FFFFFFFFFFFFFFFFEC
:101B200007FFFFFFFFFFFFE0FFFFFFFFFFFFFFFFDC
:101B300007FFFFFFFFFC1FE0FFFFFFFFFFFFFFFFAF
:101B400007FFFFFFFFF807E0FFFFFFFFFFFFFFFFBB
:101B500007FFFFFFFFF003E0FFFFFFFFFFFFFFFFB7
:101B600007FFFFFFFFE003E0FFFFFFFFFFFFFFFFB7
:101B700007FFFFFFFFE001E0FFFFFFFFFFFFFFFFA9
:101B800007FFFFFFFFC001E0FFFFFFFFFFFFFFFFB9
:101B900007FFFFFFFFC001E0FFFFFFFFFFFFFFFFA9
:101BA00007FFFFFFFFE001E0FFFFFFFFFFFFFFFF79
:101BB00007FFFFFFFFE001E0FFFFFFFFFFFFFFFF69
:101BC00007FFFFFFFFE003E0FFFFFFFFFFFFFFFF57
:101BD00007FFFFFFFFF007E0FFFFFFFFFFFFFFFF33
:101BE00007FFFFFFFFF80FE0FFFFFFFFFFFFFFFF13
:101BF00007FFFFFFFFFF3FE0FFFFFFFFFFFFFFFFCC
:101C000007FFFFFFFFFFFFE0FFFFFFFFFFFFFFFFFB
:101C100007FFFFFFFFFFFFE0FFFFFFFFFFFFFFFFEB
:101C200007FFFFFFFFFFFFE0FFFFFFFFFFFFFFFFDB
:101C300007FFFFFFFFFFFFE0FFFFFFFFFFFFFFFFCB
:101C400007FFFFFFFFFFFFE0FFFFFFFFFFFFFFFFBB
:101C500007FFFFFFFFFFFFE0FFFFFFFFFFFFFFFFAB
:101C600007FFFFFFFFFFFFE0FFFFFFFFFFFFFFFF9B
:101C700007FFFFFFFFFFFFE0FFFFFFFFFFFFFFFF8B
:101C800007FFFFFFFFFFFFE0FFFFFFFFFFFFFFFF7B
:101C900007FFFFFFFFFFFFE0FFFFFFFFFFFFFFFF6B
:101CA00007FFFFFFFFFFFFE0FFFFFFFFFFFFFFFF5B
:101CB00007FFFFFFFFFFFFE0FFFFFFFFFFFFFFFF4B
:101CC00007FFFFFFFFFFFFE0FFFFFFFFFFFFFFFF3B
:101CD00007FFFFFFFFFFFFE0FFFFFFFFFFFFFFFF2B
:101CE00007FFFFFFFFFFFFE0FFFFFFFFFFFFFFFF1B
:101CF00007FFFFFFFFFFFFE0FFFFFFFFFFFFFFFF0B
:101D000007FFFFFFFFFFFFE0FFFFFFFFFFFFFFFFFA
:101D100007FFFFFFFFFFFFE0FFFFFFFFFFFFFFFFEA
:101D200007FFFFFFFFFFFFE0FFFFFFFFFFFFFFFFDA
:101D300007FFFFFFFFFFFFE0FFFFFFFFFFFFFFFFCA
:101D400007FEFFFFFFFFFFE0FFFFFFFFFFFFFFFFBB
:101D500007F01FFFFFFFFFE0FFFFFFFFFFFFFFFF99
:101D600007E00FFFFFFFFFE0FFFFFFFFFFFFFFFFA9
:101D700007C007FFFFFFFFE0FFFFFFFFFFFFFFFFC1
:101D8000078007FFFFFFFFE0FFFFFFFFFFFFFFFFF1
:101D9000078007FFFFFFFFE0FFFFFFFFFFFFFFFFE1
:101DA000078003FFFFFFFFE0FFFFFFFFFFFFFFFFD5
:101DB000078003FFFFFFFFE0FFFFFFFFFFFFFFFFC5
:101DC000078007FFFFFFFFE0FFFFFFFFFFFFFFFFB1
:101DD00007C007FFFFFFFFE0FFFFFFFFFFFFFFFF61
:101DE00007C00FFFFFFFFFE0FFFFFFFFFFFFFFFF49
:101DF00007E01FFFFFFFFFE0FFFFFFFFFFFFFFFF09
:101E000007F83FFFFFFFFFE0FFFFFFFFFFFFFFFFC0
:101E100007FFFFFFFFFFFFE0FFFFFFFFFFFFFFFFE9
:101E200007FFFFFFFFFFFFE0FFFFFFFFFFFFFFFFD9
:101E300007FFFFFFFFFFFFE0FFFFFFFFFFFFFFFFC9
:101E400003FFFFFFFFFFFFC0FFFFFFFFFFFFFFFFDD
:101E50000000000000000000FFFFFFFFFFFFFFFF8A
:101E60000000000000000000FFFFFFFFFFFFFFFF7A
:101E70000000000000000000FFFFFFFFFFFFFFFF6A
:101E80000000000000000000FFFFFFFFFFFFFFFF5A
:101E90000000000000000000FFFFFFFFFFFFFFFF4A
:101EA0000000000000000000FFFFFFFFFFFFFFFF3A
:101EB0000000000000000000FFFFFFFFFFFFFFFF2A
:101EC0000000000000000000FFFFFFFFFFFFFFFF1A
:101ED0000000000000000000FFFFFFFFFFFFFFFF0A
:101EE0000000000000000000FFFFFFFFFFFFFFFFFA
:101EF00003FFFFFFFFFFFFC0FFFFFFFFFFFFFFFF2D
:101F000007FFFFFFFFFFFFE0FFFFFFFFFFFFFFFFF8
:101F100007FFFFFFFFFFFFE0FFFFFFFFFFFFFFFFE8
:101F200007FFFFFFFFFFFFE0FFFFFFFFFFFFFFFFD8
:101F300007FFFFFFFFFC1FE0FFFFFFFFFFFFFFFFAB
:101F400007FFFFFFFFF807E0FFFFFFFFFFFFFFFFB7
:101F500007FFFFFFFFF003E0FFFFFFFFFFFFFFFFB3
:101F600007FFFFFFFFE003E0FFFFFFFFFFFFFFFFB3
:101F700007FFFFFFFFE001E0FFFFFFFFFFFFFFFFA5
:101F800007FFFFFFFFC001E0FFFFFFFFFFFFFFFFB5
:101F900007FFFFFFFFC001E0FFFFFFFFFFFFFFFFA5
:101FA00007FFFFFFFFE001E0FFFFFFFFFFFFFFFF75
:101FB00007FFFFFFFFE001E0FFFFFFFFFFFFFFFF65
:101FC00007FFFFFFFFE003E0FFFFFFFFFFFFFFFF53
:101FD00007FFFFFFFFF007E0FFFFFFFFFFFFFFFF2F
:101FE00007FFFFFFFFF80FE0FFFFFFFFFFFFFFFF0F
:101FF00007FFFFFFFFFF3FE0FFFFFFFFFFFFFFFFC8
:1020000007FFFFFFFFFFFFE0FFFFFFFFFFFFFFFFF7
:1020100007FFFFFFFFFFFFE0FFFFFFFFFFFFFFFFE7
:1020200007FFFFFFFFFFFFE0FFFFFFFFFFFFFFFFD7
:1020300007FFFFFFFFFFFFE0FFFFFFFFFFFFFFFFC7
:1020400007FFFFF81FFFFFE0FFFFFFFFFFFFFFFF9E
:1020500007FFFFF00FFFFFE0FFFFFFFFFFFFFFFFA6
:1020600007FFFFE007FFFFE0FFFFFFFFFFFFFFFFAE
:1020700007FFFFC003FFFFE0FFFFFFFFFFFFFFFFC2
:1020800007FFFFC003FFFFE0FFFFFFFFFFFFFFFFB2
:1020900007FFFFC003FFFFE0FFFFFFFFFFFFFFFFA2
:1020A00007FFFFC003FFFFE0FFFFFFFFFFFFFFFF92
:1020B00007FFFFC003FFFFE0FFFFFFFFFFFFFFFF82
:1020C00007FFFFC003FFFFE0FFFFFFFFFFFFFFFF72
:1020D00007FFFFE007FFFFE0FFFFFFFFFFFFFFFF3E
:1020E00007FFFFF00FFFFFE0FFFFFFFFFFFFFFFF16
:1020F00007FFFFF81FFFFFE0FFFFFFFFFFFFFFFFEE
:1021000007FFFFFFFFFFFFE0FFFFFFFFFFFFFFFFF6
:1021100007FFFFFFFFFFFFE0FFFFFFFFFFFFFFFFE6
:1021200007FFFFFFFFFFFFE0FFFFFFFFFFFFFFFFD6
:1021300007FFFFFFFFFFFFE0FFFFFFFFFFFFFFFFC6
:1021400007FEFFFFFFFFFFE0FFFFFFFFFFFFFFFFB7
:1021500007F01FFFFFFFFFE0FFFFFFFFFFFFFFFF95
:1021600007E00FFFFFFFFFE0FFFFFFFFFFFFFFFFA5
:1021700007C007FFFFFFFFE0FFFFFFFFFFFFFFFFBD
:10218000078007FFFFFFFFE0FFFFFFFFFFFFFFFFED
:10219000078007FFFFFFFFE0FFFFFFFFFFFFFFFFDD
:1021A000078003FFFFFFFFE0FFFFFFFFFFFFFFFFD1
:1021B000078003FFFFFFFFE0FFFFFFFFFFFFFFFFC1
:1021C000078007FFFFFFFFE0FFFFFFFFFFFFFFFFAD
:1021D00007C007FFFFFFFFE0FFFFFFFFFFFFFFFF5D
:1021E00007C00FFFFFFFFFE0FFFFFFFFFFFFFFFF45
:1021F00007E01FFFFFFFFFE0FFFFFFFFFFFFFFFF05
:1022000007F83FFFFFFFFFE0FFFFFFFFFFFFFFFFBC
:1022100007FFFFFFFFFFFFE0FFFFFFFFFFFFFFFFE5
:1022200007FFFFFFFFFFFFE0FFFFFFFFFFFFFFFFD5
:1022300007FFFFFFFFFFFFE0FFFFFFFFFFFFFFFFC5
:1022400003FFFFFFFFFFFFC0FFFFFFFFFFFFFFFFD9
:102250000000000000000000FFFFFFFFFFFFFFFF86
:102260000000000000000000FFFFFFFFFFFFFFFF76
:102270000000000000000000FFFFFFFFFFFFFFFF66
:102280000000000000000000FFFFFFFFFFFFFFFF56
:102290000000000000000000FFFFFFFFFFFFFFFF46
:1022A0000000000000000000FFFFFFFFFFFFFFFF36
:1022B0000000000000000000FFFFFFFFFFFFFFFF26
:1022C0000000000000000000FFFFFFFFFFFFFFFF16
:1022D0000000000000000000FFFFFFFFFFFFFFFF06
:1022E0000000000000000000FFFFFFFFFFFFFFFFF6
:1022F00003FFFFFFFFFFFFC0FFFFFFFFFFFFFFFF29
:1023000007FFFFFFFFFFFFE0FFFFFFFFFFFFFFFFF4
:1023100007FFFFFFFFFFFFE0FFFFFFFFFFFFFFFFE4
:1023200007FFFFFFFFFFFFE0FFFFFFFFFFFFFFFFD4
:1023300007F83FFFFFFC1FE0FFFFFFFFFFFFFFFF6E
:1023400007E01FFFFFF807E0FFFFFFFFFFFFFFFFB2
:1023500007C00FFFFFF003E0FFFFFFFFFFFFFFFFDE
:1023600007C007FFFFE003E0FFFFFFFFFFFFFFFFE6
:10237000078007FFFFE001E0FFFFFFFFFFFFFFFF18
:10238000078003FFFFC001E0FFFFFFFFFFFFFFFF2C
:10239000078003FFFFC001E0FFFFFFFFFFFFFFFF1C
:1023A000078007FFFFE001E0FFFFFFFFFFFFFFFFE8
:1023B000078007FFFFE001E0FFFFFFFFFFFFFFFFD8
:1023C00007C007FFFFE003E0FFFFFFFFFFFFFFFF86
:1023D00007E00FFFFFF007E0FFFFFFFFFFFFFFFF3A
:1023E00007F01FFFFFF80FE0FFFFFFFFFFFFFFFFFA
:1023F00007FCFFFFFFFF3FE0FFFFFFFFFFFFFFFFC7
:1024000007FFFFFFFFFFFFE0FFFFFFFFFFFFFFFFF3
:1024100007FFFFFFFFFFFFE0FFFFFFFFFFFFFFFFE3
:1024200007FFFFFFFFFFFFE0FFFFFFFFFFFFFFFFD3
:1024300007FFFFFFFFFFFFE0FFFFFFFFFFFFFFFFC3
:1024400007FFFFFFFFFFFFE0FFFFFFFFFFFFFFFFB3
:1024500007FFFFFFFFFFFFE0FFFFFFFFFFFFFFFFA3
:1024600007FFFFFFFFFFFFE0FFFFFFFFFFFFFFFF93
:1024700007FFFFFFFFFFFFE0FFFFFFFFFFFFFFFF83
:1024800007FFFFFFFFFFFFE0FFFFFFFFFFFFFFFF73
:1024900007FFFFFFFFFFFFE0FFFFFFFFFFFFFFFF63
:1024A00007FFFFFFFFFFFFE0FFFFFFFFFFFFFFFF53
:1024B00007FFFFFFFFFFFFE0FFFFFFFFFFFFFFFF43
:1024C00007FFFFFFFFFFFFE0FFFFFFFFFFFFFFFF33
:1024D00007FFFFFFFFFFFFE0FFFFFFFFFFFFFFFF23
:1024E00007FFFFFFFFFFFFE0FFFFFFFFFFFFFFFF13
:1024F00007FFFFFFFFFFFFE0FFFFFFFFFFFFFFFF03
:1025000007FFFFFFFFFFFFE0FFFFFFFFFFFFFFFFF2
:1025100007FFFFFFFFFFFFE0FFFFFFFFFFFFFFFFE2
:1025200007FFFFFFFFFFFFE0FFFFFFFFFFFFFFFFD2
:1025300007FFFFFFFFFFFFE0FFFFFFFFFFFFFFFFC2
:1025400007FEFFFFFFFF3FE0FFFFFFFFFFFFFFFF73
:1025500007F01FFFFFF80FE0FFFFFFFFFFFFFFFF88
:1025600007E00FFFFFF007E0FFFFFFFFFFFFFFFFA8
:1025700007C007FFFFE003E0FFFFFFFFFFFFFFFFD4
:10258000078007FFFFE001E0FFFFFFFFFFFFFFFF06
:10259000078007FFFFE001E0FFFFFFFFFFFFFFFFF6
:1025A000078003FFFFC001E0FFFFFFFFFFFFFFFF0A
:1025B000078003FFFFC001E0FFFFFFFFFFFFFFFFFA
:1025C000078007FFFFE001E0FFFFFFFFFFFFFFFFC6
:1025D00007C007FFFFE003E0FFFFFFFFFFFFFFFF74
:1025E00007C00FFFFFF003E0FFFFFFFFFFFFFFFF4C
:1025F00007E01FFFFFF807E0FFFFFFFFFFFFFFFF00
:1026000007F83FFFFFFC1FE0FFFFFFFFFFFFFFFF9B
:1026100007FFFFFFFFFFFFE0FFFFFFFFFFFFFFFFE1
:1026200007FFFFFFFFFFFFE0FFFFFFFFFFFFFFFFD1
:1026300007FFFFFFFFFFFFE0FFFFFFFFFFFFFFFFC1
:1026400003FFFFFFFFFFFFC0FFFFFFFFFFFFFFFFD5
:102650000000000000000000FFFFFFFFFFFFFFFF82
:102660000000000000000000FFFFFFFFFFFFFFFF72
:102670000000000000000000FFFFFFFFFFFFFFFF62
:102680000000000000000000FFFFFFFFFFFFFFFF52
:102690000000000000000000FFFFFFFFFFFFFFFF42
:1026A0000000000000000000FFFFFFFFFFFFFFFF32
:1026B0000000000000000000FFFFFFFFFFFFFFFF22
:1026C0000000000000000000FFFFFFFFFFFFFFFF12
:1026D0000000000000000000FFFFFFFFFFFFFFFF02
:1026E0000000000000000000FFFFFFFFFFFFFFFFF2
:1026F00003FFFFFFFFFFFFC0FFFFFFFFFFFFFFFF25
:1027000007FFFFFFFFFFFFE0FFFFFFFFFFFFFFFFF0
:1027100007FFFFFFFFFFFFE0FFFFFFFFFFFFFFFFE0
:1027200007FFFFFFFFFFFFE0FFFFFFFFFFFFFFFFD0
:1027300007F83FFFFFFC1FE0FFFFFFFFFFFFFFFF6A
:1027400007E01FFFFFF807E0FFFFFFFFFFFFFFFFAE
:1027500007C00FFFFFF003E0FFFFFFFFFFFFFFFFDA
:1027600007C007FFFFE003E0FFFFFFFFFFFFFFFFE2
:10277000078007FFFFE001E0FFFFFFFFFFFFFFFF14
:10278000078003FFFFC001E0FFFFFFFFFFFFFFFF28
:10279000078003FFFFC001E0FFFFFFFFFFFFFFFF18
:1027A000078007FFFFE001E0FFFFFFFFFFFFFFFFE4
:1027B000078007FFFFE001E0FFFFFFFFFFFFFFFFD4
:1027C00007C007FFFFE003E0FFFFFFFFFFFFFFFF82
:1027D00007E00FFFFFF007E0FFFFFFFFFFFFFFFF36
:1027E00007F01FFFFFF80FE0FFFFFFFFFFFFFFFFF6
:1027F00007FCFFFFFFFF3FE0FFFFFFFFFFFFFFFFC3
:1028000007FFFFFFFFFFFFE0FFFFFFFFFFFFFFFFEF
:1028100007FFFFFFFFFFFFE0FFFFFFFFFFFFFFFFDF
:1028200007FFFFFFFFFFFFE0FFFFFFFFFFFFFFFFCF
:1028300007FFFFFFFFFFFFE0FFFFFFFFFFFFFFFFBF
:1028400007FFFFF81FFFFFE0FFFFFFFFFFFFFFFF96
:1028500007FFFFF00FFFFFE0FFFFFFFFFFFFFFFF9E
:1028600007FFFFE007FFFFE0FFFFFFFFFFFFFFFFA6
:1028700007FFFFC003FFFFE0FFFFFFFFFFFFFFFFBA
:1028800007FFFFC003FFFFE0FFFFFFFFFFFFFFFFAA
:1028900007FFFFC003FFFFE0FFFFFFFFFFFFFFFF9A
:1028A00007FFFFC003FFFFE0FFFFFFFFFFFFFFFF8A
:1028B00007FFFFC003FFFFE0FFFFFFFFFFFFFFFF7A
:1028C00007FFFFC003FFFFE0FFFFFFFFFFFFFFFF6A
:1028D00007FFFFE007FFFFE0FFFFFFFFFFFFFFFF36
:1028E00007FFFFF00FFFFFE0FFFFFFFFFFFFFFFF0E
:1028F00007FFFFF81FFFFFE0FFFFFFFFFFFFFFFFE6
:1029000007FFFFFFFFFFFFE0FFFFFFFFFFFFFFFFEE
:1029100007FFFFFFFFFFFFE0FFFFFFFFFFFFFFFFDE
:1029200007FFFFFFFFFFFFE0FFFFFFFFFFFFFFFFCE
:1029300007FFFFFFFFFFFFE0FFFFFFFFFFFFFFFFBE
:1029400007FEFFFFFFFF3FE0FFFFFFFFFFFFFFFF6F
:1029500007F01FFFFFF80FE0FFFFFFFFFFFFFFFF84
:1029600007E00FFFFFF007E0FFFFFFFFFFFFFFFFA4
:1029700007C007FFFFE003E0FFFFFFFFFFFFFFFFD0
:10298000078007FFFFE001E0FFFFFFFFFFFFFFFF02
:10299000078007FFFFE001E0FFFFFFFFFFFFFFFFF2
:1029A000078003FFFFC001E0FFFFFFFFFFFFFFFF06
:1029B000078003FFFFC001E0FFFFFFFFFFFFFFFFF6
:1029C000078007FFFFE001E0FFFFFFFFFFFFFFFFC2
:1029D00007C007FFFFE003E0FFFFFFFFFFFFFFFF70
:1029E00007C00FFFFFF003E0FFFFFFFFFFFFFFFF48
:1029F00007E01FFFFFF807E0FFFFFFFFFFFFFFFFFC
:102A000007F83FFFFFFC1FE0FFFFFFFFFFFFFFFF97
:102A100007FFFFFFFFFFFFE0FFFFFFFFFFFFFFFFDD
:102A200007FFFFFFFFFFFFE0FFFFFFFFFFFFFFFFCD
:102A300007FFFFFFFFFFFFE0FFFFFFFFFFFFFFFFBD
:102A400003FFFFFFFFFFFFC0FFFFFFFFFFFFFFFFD1
:102A50000000000000000000FFFFFFFFFFFFFFFF7E
:102A60000000000000000000FFFFFFFFFFFFFFFF6E
:102A70000000000000000000FFFFFFFFFFFFFFFF5E
:102A80000000000000000000FFFFFFFFFFFFFFFF4E
:102A90000000000000000000FFFFFFFFFFFFFFFF3E
:102AA0000000000000000000FFFFFFFFFFFFFFFF2E
:102AB0000000000000000000FFFFFFFFFFFFFFFF1E
:102AC0000000000000000000FFFFFFFFFFFFFFFF0E
:102AD0000000000000000000FFFFFFFFFFFFFFFFFE
:102AE0000000000000000000FFFFFFFFFFFFFFFFEE
:102AF00003FFFFFFFFFFFFC0FFFFFFFFFFFFFFFF21
:102B000007FFFFFFFFFFFFE0FFFFFFFFFFFFFFFFEC
:102B100007FFFFFFFFFFFFE0FFFFFFFFFFFFFFFFDC
:102B200007FFFFFFFFFFFFE0FFFFFFFFFFFFFFFFCC
:102B300007F83FFFFFFC1FE0FFFFFFFFFFFFFFFF66
:102B400007E01FFFFFF807E0FFFFFFFFFFFFFFFFAA
:102B500007C00FFFFFF003E0FFFFFFFFFFFFFFFFD6
:102B600007C007FFFFE003E0FFFFFFFFFFFFFFFFDE
:102B7000078007FFFFE001E0FFFFFFFFFFFFFFFF10
:102B8000078003FFFFC001E0FFFFFFFFFFFFFFFF24
:102B9000078003FFFFC001E0FFFFFFFFFFFFFFFF14
:102BA000078007FFFFE001E0FFFFFFFFFFFFFFFFE0
:102BB000078007FFFFE001E0FFFFFFFFFFFFFFFFD0
:102BC00007C007FFFFE003E0FFFFFFFFFFFFFFFF7E
:102BD00007E00FFFFFF007E0FFFFFFFFFFFFFFFF32
:102BE00007F01FFFFFF80FE0FFFFFFFFFFFFFFFFF2
:102BF00007FCFFFFFFFF3FE0FFFFFFFFFFFFFFFFBF
:102C000007FFFFFFFFFFFFE0FFFFFFFFFFFFFFFFEB
:102C100007FFFFFFFFFFFFE0FFFFFFFFFFFFFFFFDB
:102C200007FFFFFFFFFFFFE0FFFFFFFFFFFFFFFFCB
:102C300007FFFFFFFFFFFFE0FFFFFFFFFFFFFFFFBB
:102C400007F03FFFFFFC0FE0FFFFFFFFFFFFFFFF6D
:102C500007E00FFFFFF007E0FFFFFFFFFFFFFFFFB1
:102C600007C00FFFFFF003E0FFFFFFFFFFFFFFFFC5
:102C700007C007FFFFE003E0FFFFFFFFFFFFFFFFCD
:102C8000078007FFFFE001E0FFFFFFFFFFFFFFFFFF
:102C9000078003FFFFC001E0FFFFFFFFFFFFFFFF13
:102CA000078003FFFFC001E0FFFFFFFFFFFFFFFF03
:102CB000078007FFFFE001E0FFFFFFFFFFFFFFFFCF
:102CC00007C007FFFFE003E0FFFFFFFFFFFFFFFF7D
:102CD00007C00FFFFFF003E0FFFFFFFFFFFFFFFF55
:102CE00007E00FFFFFF007E0FFFFFFFFFFFFFFFF21
:102CF00007F03FFFFFFC0FE0FFFFFFFFFFFFFFFFBD
:102D000007FFFFFFFFFFFFE0FFFFFFFFFFFFFFFFEA
:102D100007FFFFFFFFFFFFE0FFFFFFFFFFFFFFFFDA
:102D200007FFFFFFFFFFFFE0FFFFFFFFFFFFFFFFCA
:102D300007FFFFFFFFFFFFE0FFFFFFFFFFFFFFFFBA
:102D400007FEFFFFFFFF3FE0FFFFFFFFFFFFFFFF6B
:102D500007F01FFFFFF80FE0FFFFFFFFFFFFFFFF80
:102D600007E00FFFFFF007E0FFFFFFFFFFFFFFFFA0
:102D700007C007FFFFE003E0FFFFFFFFFFFFFFFFCC
:102D8000078007FFFFE001E0FFFFFFFFFFFFFFFFFE
:102D9000078007FFFFE001E0FFFFFFFFFFFFFFFFEE
:102DA000078003FFFFC001E0FFFFFFFFFFFFFFFF02
:102DB000078003FFFFC001E0FFFFFFFFFFFFFFFFF2
:102DC000078007FFFFE001E0FFFFFFFFFFFFFFFFBE
:102DD00007C007FFFFE003E0FFFFFFFFFFFFFFFF6C
:102DE00007C00FFFFFF003E0FFFFFFFFFFFFFFFF44
:102DF00007E01FFFFFF807E0FFFFFFFFFFFFFFFFF8
:102E000007F83FFFFFFC1FE0FFFFFFFFFFFFFFFF93
:102E100007FFFFFFFFFFFFE0FFFFFFFFFFFFFFFFD9
:102E200007FFFFFFFFFFFFE0FFFFFFFFFFFFFFFFC9
:102E300007FFFFFFFFFFFFE0FFFFFFFFFFFFFFFFB9
:102E400003FFFFFFFFFFFFC0FFFFFFFFFFFFFFFFCD
:102E50000000000000000000FFFFFFFFFFFFFFFF7A
:102E60000000000000000000FFFFFFFFFFFFFFFF6A
:102E70000000000000000000FFFFFFFFFFFFFFFF5A
:102E80000000000000000000FFFFFFFFFFFFFFFF4A
:102E90000000000000000000FFFFFFFF0000000036
:102EA00000000000010203040607080900000000FA
:102EB00001020304D42E0008000000201C000000C2
:102EC000B2130008F02E00081C0000206408000067
:102ED000C213000800000000000000000000000015
:102EE0000100000010000000000000000024F400B9
:040000050800018965
:00000001FF
